:020000040800F2
:10000000F020002001010008EB1E00086D1D000813
:10001000E91E0008E9060008992400080000000015
:10002000000000000000000000000000EF1E0008BB
:100030002307000800000000ED1E0008F11E000864
:100040001B0100081B0100081B0100081B01000820
:100050001B0100081B0100081B0100081B01000810
:100060001B0100081B0100081B0100081B01000800
:100070001B0100081B0100081B0100081B010008F0
:10008000ED0600081B0100081B0100081B01000809
:100090001B0100081B0100081B0100081B010008D0
:1000A0001B0100081B0100081B0100081B010008C0
:1000B000551F00081B0100081B0100081B01000858
:1000C0001B0100081B0100081B0100081B010008A0
:1000D0001B010008212400082D2400088D2400089D
:1000E0001B0100081B0100081B010008DFF80CD0F1
:1000F00000F0E8FA00480047F92D0008F020002041
:100100000648804706480047FEE7FEE7FEE7FEE7B1
:10011000FEE7FEE7FEE7FEE7FEE7FEE7531F000807
:10012000ED000008202A04DB203A21FA02F0002129
:10013000704721FA02F3D040C2F1200291400843F7
:1001400019467047D2B201E000F8012B491EFBD2DC
:1001500070470022F6E710B513460A4604461946D2
:10016000FFF7F0FF204610BD30B505462A460B4686
:1001700012F8010B13F8014B08B1A042F8D01CB1E2
:10018000002802D06D1CF1E7284630BD421C10F853
:10019000011B0029FBD1801A704710B5002200E036
:1001A000521C835C8C5CA34201D1002BF8D1D8B2E5
:1001B000E1B2401A10BD034611F8012B00F8012BE3
:1001C000002AF9D1184670472DE9FE4F804681EA92
:1001D0000300C00F0C46009021F0004123F00045C1
:1001E000B8EB0200A94105D24046214690461C4684
:1001F0000B46024623F00040104347D0270DC7F3BB
:100200000A00C3F30A510290401A019040286BDAA9
:10021000C3F3130040F4801B0098924620B10023E2
:10022000D2EB030A63EB0B0B01985946C0F1400275
:10023000504600F042F906460D4650465946019A8E
:1002400000F04AF910EB08006141002487EA1152DE
:1002500084EAE7731A4340D0009A62B3019A012AF4
:100260004FEA075215DC001B61EB02014FF0004220
:1002700002EA0752CDE90042001C41F580113246E6
:100280002B4600F04AF903B0BDE8F08F4046214606
:10029000F9E7001B61EB0201001C41F58013001817
:1002A0005B412018A2F5001747EB030140EAD57027
:1002B000B6196D4111E06D084FEA360645EAC07582
:1002C0004FEA0752001B61EB0201001C41F580114F
:1002D00049084FEA30000019514132462B4603B01D
:1002E000BDE8F04F00F00AB9009801224000002359
:1002F000D0EB020263EBE073009821464FEAE07412
:10030000B8EB000061EB0401E9E783F000435BE731
:1003100081F0004158E72DE9FE4F81EA030404F023
:10032000004421F0004100944FF0000B23F0004303
:1003300050EA01045ED052EA03045BD0C3F30A54CE
:10034000C1F30A552C44A4F2F3340194A0FB0254E7
:10035000C1F3130141F48011C3F3130343F4801379
:1003600001FB024400FB034E840A970A44EA8154CD
:1003700047EA8357A4FB076802958D0A05FB0785AA
:100380004FEA932C04FB0C542705029D4FEA0658B4
:1003900047EA1637B5EB08056EEB070C870E920E91
:1003A00047EA811742EA8312A7FB0201B6EB0B0171
:1003B00064EB00042B0D43EA0C335E1844EB1C5035
:1003C000DA465146E7FB0201C5F313044FEA0B334B
:1003D00043EA14534FEA0432019C43EA0603A4F1B2
:1003E0000C040294009CCDE900B400F096F803B030
:1003F000BDE8F08F00200146F9E7000030B5041E8B
:1004000071F1000404DB4FF00044404264EB010151
:10041000141E73F1000405DB1C464FF000435242EA
:1004200063EB0403994208BF904230BD30B50B46E0
:10043000014600202022012409E021FA02F59D4214
:1004400005D303FA02F5491B04FA02F52844151EE8
:10045000A2F10102F1DC30BD2DE9F05F054600207C
:1004600092469B4688460646814640241BE0284625
:10047000414647462246FFF755FE53465A46C01AA4
:10048000914110D311461846224600F016F82D1A55
:1004900067EB01084F4622460120002100F00DF8CD
:1004A00017EB00094E41201EA4F10104DFDC484691
:1004B00031462A464346BDE8F09F202A04DB203A15
:1004C00000FA02F1002070479140C2F1200320FAA7
:1004D00003F3194390407047202A06DBCB17203ADC
:1004E00041FA02F043EAE07306E041FA02F3D04039
:1004F000C2F12002914008431946704710B5141EFE
:1005000073F1000408DA401C41F1000192185B41CC
:100510001A4301D120F0010010BD2DE9F04D9246A3
:100520009B4611B1B1FA81F202E0B0FA80F22032BA
:100530009046FFF7C2FF04460F4640EA0A0041EA30
:100540000B0153465A46084313D0114653EA0100A3
:1005500019D0C8F140025046FFF7E4FD05460E46AB
:10056000504659464246FFF7A8FF084305D00120F0
:1005700004E020463946BDE8F08D0020054346EAF8
:10058000E0762C4337430A986305E40AA0EB0800A1
:100590000022FD0A44EA47540A3002D500200146F1
:1005A000E9E7010510196941DDE9084500196941CC
:1005B000BDE8F04DA2E72DE9F04D81EA030404F017
:1005C000004B21F0004514464FF0000A23F0004193
:1005D00050EA050220D054EA01021DD0C5F30A57A3
:1005E0000246C5F31303C1F31300C1F30A5640F4E6
:1005F000801543F48013A7EB0608101BD64608F2BB
:10060000FD3873EB050002D308F1010801E09218F0
:100610005B41B8F1000F03DA00200146BDE8F08D20
:1006200000204FF48011064684460EE0171B73EB42
:10063000050705D3121B63EB050306434CEA010CC7
:1006400049084FEA300092185B4150EA0107EDD1AA
:1006500052EA030012D082EA040083EA050108434B
:1006600005D0101BAB4106D20122002306E0002278
:100670004FF0004302E06FF0010253101AEB060046
:100680004CEB085110EB0A0041EB0B01BDE8F04DBB
:10069000FFF734BFC1F30A52C1F3130140F2FF3335
:1006A00041F480119A4202DA00200146704740F27C
:1006B00033439A42A2F2334202DC5242FFF732BD88
:1006C000FFF7FBBE064C074D06E0E06840F0010373
:1006D00094E8070098471034AC42F6D3FFF70AFDC0
:1006E000F02F000810300008FEE70000014800F07D
:1006F0005DB90000F813002030B590F84050012497
:10070000AC40C56B6C60046863604368102B036881
:1007100003D099600068C26030BD9A600068C16013
:1007200030BD704710B54FF480610348FFF711FDED
:1007300002490020088010BDEC18002014000020A1
:1007400010B54FF480621349134801F0B1FA124812
:100750000068C16841F01001C16010A110A000F054
:100760005BF80028F9D10DA10FA000F055F8002882
:10077000F9D10AA110A000F04FF80028F9D116A174
:1007800017A000F049F80028F9D1BDE810401FA0DB
:1007900001F084BEEC180020681300204F4B0000CD
:1007A00041540D0A0000000041542B43574D4F4463
:1007B000453D310D0A00000041542B43574A41503A
:1007C0003D226D616E676F222C2231323334353613
:1007D0003837220D0A000000434F4E4E4543540067
:1007E00041542B43495053544152543D2254435099
:1007F000222C223139322E3136382E3233342E31FA
:100800003038222C383038300D0A0000737563639D
:100810006573730D0A00000070B50D460646C824C6
:10082000FFF780FF3046FFF7B1FCC1B2304600F061
:1008300035F80BE029460848FFF796FC18B1FFF79A
:1008400071FF002070BD0A2000F0C0F9641EE4B200
:10085000F0D2012070BD0000EC18002030B58DB042
:1008600005460C460A4608A1684601F027FE0AA183
:100870006846FFF7D1FF0028F9D1E1B2284600F021
:100880000DF80DB030BD000041542B434950534585
:100890004E443D25640D0A003E0000002DE9F04164
:1008A0000E4605460024074F08E000BF15F8010B6F
:1008B0003860012000F08AF9641CE4B2B442F5D338
:1008C000BDE8F0810444004072B6FEE710B590F830
:1008D00021100022022905D00421816380F8202004
:1008E000012010BD01680B6823F00E030B60016846
:1008F0000B6823F001030B6090F84030C46B0121BA
:1009000001FA03F3636080F8211080F8202010467C
:1009100010BD000010B590F821100024022903D06A
:100920000421816301243DE001680A6822F00E027F
:100930000A6001680A6822F001020A601A4A016826
:10094000914201D1012121E0174A1432914201D193
:1009500010211BE0144A2832914201D1891515E07B
:10096000114A3C32914201D189140FE00E4A5032B3
:10097000914202D14FF4803108E00B4A6432914237
:1009800002D14FF4801101E04FF08071064A083A1D
:100990005160012180F82110002180F82010416B66
:1009A00001B18847204610BD080002402DE9F05FE4
:1009B000C16B0C6801680B68D0F840C0042202FAD1
:1009C0000CF2494DDFF824A1494E4A4FDFF828B117
:1009D000DFF828E122422CD05A072AD50A6892066D
:1009E00003D40A6822F004020A600168A94201D116
:1009F000042219E0514501D1402215E0B14202D153
:100A00004FF4806210E0B94202D14FF480420BE013
:100A1000594502D14FF4802206E0714502D14FF4CE
:100A2000800201E04FF080622F4908394A60C16AB4
:100A30003BE04FF0020808FA0CF818EA040F4FF0F8
:100A400000094FF0010235D05FEA837832D50B6898
:100A50009B0605D40B6823F00A030B6080F8212065
:100A60000168A94201D1022219E0514501D1202299
:100A700015E0B14202D14FF4007210E0B94202D148
:100A80004FF400520BE0594502D14FF4003206E01A
:100A9000714502D14FF4001201E04FF0007212498B
:100AA00008394A6080F82090816A00291AD0BDE890
:100AB000F05F0847082505FA0CF5254212D01B0700
:100AC00010D50B6823F00E030B6090F84010C36B39
:100AD00002FA01F15960826380F8212080F82090A9
:100AE000016BE2E7BDE8F09F080002401C000240F5
:100AF0003000024044000240580002406C000240B6
:100B000030B528B308C8134914221944B1FBF2F1D7
:100B10008900C16310498163022141771A6843F655
:100B2000F0718A43D0E900142143D0E902452C43F7
:100B300021430469214344692143846921431143CA
:100B4000196000214163012242770177084630BDD8
:100B5000012030BDF8FFFDBF0000024070B5044623
:100B600090F82000002501280CD0012084F82000F6
:100B700094F821600020012E06D084F82000022580
:100B8000284670BD022070BD022684F82160A06353
:100B90002068066826F0010606602046FFF7ACFDD7
:100BA000E06A00282068016802D041F00E0106E0EA
:100BB00021F0040101602068016841F00A01016030
:100BC0002068016841F001010160D9E770B5044671
:100BD00000F0FEF80546601C02D00448007804448A
:100BE00000F0F6F8401BA042FAD370BD04000020CC
:100BF0002DE9F84FDFF8B8910024A9F1040B234642
:100C00000F2709F1040AABF1040EC9E00125A54044
:100C10002A40AA427DD1674ED1F804C0ACEB060849
:100C2000B44532D014DCBCF1030F3AD009DCBCF17E
:100C3000000F2AD0BCF1010F1CD0BCF1020F31D142
:100C40001DE0BCF1110F17D0BCF1120F2AD119E031
:100C5000B8F5881F19D006DCB8F5803F15D0B8F577
:100C6000801F1FD111E0B8F5001F0ED0B8F5041F8A
:100C700018D10AE0CB6815E0CB681B1D12E0CB68E9
:100C800008330FE0CB680C330CE08B682BB1012BE1
:100C90004FF0080303D0456104E0042302E005613E
:100CA00000E00023FF2A01D8064601E000F1040617
:100CB0004FEA840501D9A5F12005D6F8008007FA8E
:100CC00005FC28EA0C0803FA05F548EA0508C6F809
:100CD00000804D68ED0062D5374DAE6946F00106E3
:100CE000AE61AD6924F0030605F001050095334DB2
:100CF00006EB050CDCF80850A607360F07FA06F8D5
:100D000025EA0805DFF8B880404503D14FF0000818
:100D100017E044E0DFF8AC80404502D14FF0010815
:100D20000FE0DFF8A480404502D14FF0020808E050
:100D3000DFF89880404502D14FF0030801E04FF002
:100D4000040808FA06F848EA0508CCF808804D6857
:100D5000D9F80060ED024D4601D5164300E09643F8
:100D60002E604D68DAF80060AD02554601D5164395
:100D700000E096432E604D68DBF80060AD035D46F1
:100D800001D5164300E096432E604D68DEF8006002
:100D9000ED03754601D5164300E096432E60641CB2
:100DA0000D682A46E5407FF431AFBDE8F88F0000BA
:100DB0000804014000001110001002400000014032
:100DC00000080140000C01400010014000140140E7
:100DD00001488068704700000400002002488168D4
:100DE000027811448160704704000020074810B564
:100DF000016841F010010160032000F075F80F2038
:100E000000F006F800F024F8002010BD0020024099
:100E100070B50D4D04464FF47A712878B1FBF0F0AF
:100E20000A490968B1FBF0F000F0DCFA48B9102C6F
:100E300007D200222146501E00F036F800206C60D8
:100E400070BD012070BD00000400002010000020D3
:100E50000C4808B5816941F001018161816901F0A7
:100E600001010091C16941F08051C161C06900F088
:100E7000805000900448416821F0E06141F0007129
:100E8000416008BD0010024000000140002809DB5D
:100E900000F01F02012191404009800000F1E02094
:100EA000C0F8001170470000F0B40E4B1B680C46F0
:100EB000C3F30223C3F10705042D00D90425191D2E
:100EC000072901D2002300E0DB1E012606FA05F106
:100ED000491E214099409E40761E16403143F0BC89
:100EE00001F000BB0CED00E0064900F007020868C5
:100EF0004FF6FF03184040EA0220034A10430860FF
:100F0000704700000CED00E00000FA052DE9F04705
:100F10000F46050061D0434E306800F00700B8422C
:100F200009D2306820F0070038433060306800F0A4
:100F30000700B84251D128683B4C810712D54007C1
:100F400003D5606840F4E06060602878000703D54E
:100F5000606840F4605060606068A96820F0F0004C
:100F6000084360602878C00728D06868012810D03E
:100F70002168022810D0890700292EDA616821F043
:100F8000030101436160FFF723FF804641F2883986
:100F90000DE021688903EFE78901EDE7FFF718FF0E
:100FA000A0EB0801494502D90320BDE8F08760683D
:100FB000696800F00C00B0EB810FEFD1306800F0F1
:100FC0000700B8420BD9306820F007003843306082
:100FD000306800F00700B84201D00120E5E728782A
:100FE000400705D56068E96820F4E0600843606068
:100FF0002878000706D56068296920F4605040EA27
:10100000C100606000F038F86168084AC1F303115C
:10101000515CC8400649086006480068FFF7F8FEC2
:101020000020C2E70020024000100240D62F000836
:1010300010000020080000200448054900684968A5
:10104000044AC1F30221515CC840704710000020DF
:1010500000100240E62F000804480549006849686E
:10106000044AC1F3C221515CC840704710000020FF
:1010700000100240E62F00080E4A51680E4801F0A9
:101080000C03042B11D0082B0FD10C48C1F3834360
:10109000C903C05C0AD55168084AC1F34041921E99
:1010A000515C054A5043B0FBF1F070470449484396
:1010B000704700000010024000127A00C62F00089E
:1010C00000093D002DE9F84F040070D02078C04D94
:1010D000C00749D06868C0F38100012807D068685C
:1010E000C0F38100022809D16868C00306D52868CA
:1010F000800339D560680028E7D035E06068B0F536
:10110000803F0BD010B1B0F5A02F11D0286820F48B
:1011100080302860286820F4802002E0286840F4AD
:1011200080302860606890B1FFF752FE06460AE002
:10113000286840F480202860F0E700BFFFF748FEF1
:10114000801B642873D828688003F7D50CE0FFF76C
:101150003FFE064605E000BFFFF73AFE801B64280D
:10116000F0D828688003F7D420789A4E80074FF093
:1011700001094FF0000839D5686810F00C0F07D04E
:101180006868C0F38100022809D16868C00306D4EA
:101190002868800714D52069012808D110E020694B
:1011A000B0B1C6F80090FFF713FE074605E00AE16C
:1011B000FFF70EFEC01B0228C4D828688007F7D5A9
:1011C0002868616920F0F80040EAC10028600DE05D
:1011D000C6F80080FFF7FCFD074604E0FFF7F8FDC6
:1011E000C01B022823D828688007F7D4207800077E
:1011F0002CD57948A169D9B1C0F80090FFF7E8FD76
:10120000074604E0FFF7E4FDC01B02280FD8686A18
:101210008007F7D571484FF4FA510068B0FBF1F040
:10122000009000BF0098411E0091FAD20EE080E0CD
:10123000C0F80080FFF7CCFD074604E0FFF7C8FDCB
:10124000C01B022875D8686A8007F7D42078400749
:1012500060D5E8690027C00008D4E86940F08050F4
:10126000E861E869012700F0805000905C4801685F
:10127000C90513D40168834641F480710160FFF70A
:10128000A7FD824606E000BFFFF7A2FDA0EB0A0023
:1012900064284ED8DBF80000C005F5D5E0680128C9
:1012A0000AD008B1052813D0286A20F0010028626E
:1012B000286A20F0040002E0286A40F00100286259
:1012C000E06841F2883B98B1FFF782FD82460BE06F
:1012D000286A40F004002862EEE700BFFFF778FDBF
:1012E000A0EB0A0159455AD8286A8007F6D50CE0C8
:1012F000FFF76EFD824605E0FFF76AFDA0EB0A01ED
:1013000059454CD8286A8007F6D41FB1E86920F007
:101310008050E861E06988B36968C1F381010229FE
:1013200044D00228C6F8608004D0FFF751FD04467F
:1013300038E034E0FFF74CFD074604E0FFF748FDD6
:10134000C01B02282BD828688001F7D4206AB0F58A
:10135000803F05D16868A16820F4003008436860C8
:10136000D4E908010843696821F4741108436860EE
:10137000C6F86090FFF72CFD044606E025E000BFAC
:10138000FFF726FD001B022809D828688001F7D541
:101390001BE000BFFFF71CFD001B022802D9032041
:1013A000BDE8F88F28688001F4D40EE00128F7D05A
:1013B0006868226A00F48031914204D1616A00F4C5
:1013C0007010884201D00120EAE70020E8E7000021
:1013D00000100240000042428004424210000020FF
:1013E0000070004010B5401EB0F1807F01D3012095
:1013F00010BD4FF0E02460610F21601701F072F81A
:101400000020A06107202061002010BD70477047B8
:1014100070B590F83C20012A26D0012480F83C4089
:10142000022280F83D2003685A689D6822F0700609
:101430000A6832435A600D4B02689A4208D0B2F1F2
:10144000804F05D00A4B9A4202D00A4B9A4204D1EF
:10145000496825F080031943916080F83D400021E0
:1014600080F83C10084670BD022070BD002C014081
:10147000000400400008004010B5040003D094F8B8
:101480003D0010B107E0012010BD002084F83C00B1
:10149000204600F01FF8022084F83D00211D20683E
:1014A00000F05EFD012084F8460084F83E0084F8D8
:1014B0003F0084F8400084F8410084F8420084F83A
:1014C000430084F8440084F8450084F83D0000207F
:1014D00010BD000008B50068B0F1804F12D10A4875
:1014E000C16941F00101C161C069002200F0010041
:1014F000009011461C20FFF7D7FCBDE808401C20D7
:10150000FFF7C4BC08BD00000010024070B50446DF
:1015100090F83C000025012817D0012684F83C6093
:10152000022084F83D002068826822F0770222F4CD
:101530007F4282600868502838D00DDC20284FD0C8
:1015400005DC90B3102811D14AE0022070BD30288C
:1015500046D040280AD13BE060282FD070280DD01B
:10156000B0F5805F03D0B0F5005F12D0012584F89C
:101570003D60002084F83C00284670BDCB68D1E96E
:101580000121206800F022FD2068816841F0770188
:1015900009E0CB68D1E90121206800F017FD20683F
:1015A000816841F480418160E1E719E0CA684968D7
:1015B000206800F01DFD5021206806E0CA684968D7
:1015C000206800F026FD6021206800F009FDCEE7CC
:1015D000CA684968206800F00BFD40212068F4E7E4
:1015E000226801461046F0E7704770B5044600686F
:1015F00001694FF00005C943890715D4C168C94383
:10160000890711D4E91E01610120207720688069D3
:101610008007204602D0FFF7E7FF04E000F098F8CB
:10162000204600F096F8257720680169C9434907EC
:1016300017D4C168C943490713D46FF0040101618D
:10164000022020772068806910F4407F204602D075
:10165000FFF7CAFF04E000F07BF8204600F079F8BD
:10166000257720680169C943090716D4C168C943B1
:10167000090712D46FF00801016104202077206867
:10168000C0698007204602D0FFF7AEFF04E000F0FB
:101690005FF8204600F05DF8257720680169C943AE
:1016A000C90617D4C168C943C90613D46FF0100125
:1016B0000161082020772068C06910F4407F20462F
:1016C00002D0FFF791FF04E000F042F8204600F05E
:1016D00040F8257720680169C943C90708D1C16866
:1016E000C943C90704D1891E0161204600F032F8C0
:1016F00020680169C943090609D4C168C9430906BC
:1017000005D46FF0800101612046FFF77FFE20685D
:101710000169C943490609D4C168C943490605D4CA
:101720006FF040010161204600F015F82068016962
:10173000C94389060BD4C168C943890607D46FF031
:10174000200101612046BDE87040FFF760BE70BD1A
:101750007047704770477047704710B5044600687F
:10176000406994F84110C0F3C010212911D180B113
:101770002068143050E8001F21F0800140E800127A
:10178000002AF5D1A06B08B1FFF7A0F8204600F0C1
:10179000F8FC2068406994F84210C0F380102229B8
:1017A00011D180B12068143050E8001F21F04001B1
:1017B00040E80012002AF5D1E06B08B1FFF786F887
:1017C000204600F0B7FC002010BD7047F8B5016856
:1017D00004460868CA684B6910F00F0F4FF0000507
:1017E00059D003F0010602F49077374365D0C10762
:1017F00005D0D10503D5616C41F001016164410759
:1018000005D5D90703D0616C41F0020161648107FD
:1018100005D5D90703D0616C41F00401616401076B
:1018200007D502F02001314303D0616C41F008017B
:101830006164616C00293AD0800604D5900602D517
:10184000204600F0ACFC20684069616CC0F3801059
:10185000090700D460B3204600F06CFC20684069A2
:10186000400621D52068143050E8001F21F04001C7
:1018700040E80012002AF5D1E06BA8B16D49416340
:10188000E06BFFF747F8002811D0E06B416B01B027
:10189000BDE8F040084783060FD593060DD52046D6
:1018A000BDE8F84000F07BBC2046FFF78EFFF8BD96
:1018B0002046FFF78AFF6564F8BD266B2023012EC2
:1018C0007CD1C6067AD5D60678D5086848680090D7
:1018D00048694FF00206400640D5E16B0868406851
:1018E0000004000CE8D0A28D8242E5D9E085886929
:1018F00020282DD020680C3050E8001F21F4807182
:1019000040E80012002AF5D12068143050E8001F8A
:1019100021F0010140E80012002AF5D120681430BE
:1019200050E8001F21F0400140E80012002AF5D1E4
:1019300084F84230256320680C3050E8001F21F005
:10194000100140E80012002AF5D1E06BFEF7BEFF5F
:101950006663A08DE18D401A81B22AE0A08DE18DF1
:10196000401A81B2E08D0028A6D00029A4D02268B8
:101970000C3252E8000F20F4907042E80007002F6C
:10198000F5D12068143050E8002F22F0010240E821
:101990000027002FF5D184F84230256320680C30F1
:1019A00050E8002F22F0100240E80023002BF5D170
:1019B00066632046FFF7D0FEF8BDFFE705062BD58E
:1019C000150629D594F841002128F5D1A068B0F575
:1019D000805F01D12069B0B1206A411C2162216879
:1019E00000784860E08C401E0004000CE084E3D1E5
:1019F0002068C16821F08001C1602068C16841F0A1
:101A00004001C160D8E7206A0088C0F30800486040
:101A1000206A801C2062E5E74006CDD55006CBD574
:101A2000CA68204622F04002CA6084F8413000F0C3
:101A30009CF9C1E73720000870B5040004D094F881
:101A40004100002510B106E0012070BD84F840502F
:101A5000204600F023F8242084F841002068C16863
:101A600021F40051C160204600F0FAFB20680169B2
:101A700021F4904101612068416921F02A0141610E
:101A80002068C16841F40051C1606564202084F879
:101A9000410084F842006563002070BDF0B585B058
:101AA00000240094019402940394054603684E4870
:101AB000DFF830C1022103224C4E0715634525D1C2
:101AC000836943F480438361836903F4804304930F
:101AD000836943F0040383618069039200F004008A
:101AE00004900802CDE9000169463046FFF780F80E
:101AF000CDE90074694630460294FFF779F8002278
:101B000011462520FFF7D0F925203CE0DFF8E0C0A2
:101B100063453CD1C36943F40033C361C36903F433
:101B200000330493836943F0040383618069039263
:101B300000F0040004900420CDE90001694630461D
:101B4000FFF756F80820CDE90004694630460294B4
:101B5000FFF74EF8284E2748C6E900048020C6E962
:101B6000024034617461B4613046F461FEF7C8FF2D
:101B700008B1FEF7A9FEEE63002211462620756229
:101B8000FFF792F92620FFF781F905B0F0BD1B4D54
:101B9000AB42FAD1C36943F48023C361C36903F440
:101BA00080230493836943F0080383618069CDE94E
:101BB000007100F00800CDE90320114D6946284668
:101BC000FFF716F8E814CDE90004694628460294A8
:101BD000FFF70EF8002211462720FFF765F92720AE
:101BE000D1E7000000380140001002400008014029
:101BF000004400406C000240F81300200048004000
:101C0000000C01402DE9F843044690F84200994643
:101C100016460D46202802D00220BDE8F883ADB15B
:101C2000A6B100206064222184F842102063FFF7EF
:101C3000CFF8A6858046E685A0684FF48057B84265
:101C400001D1206920B12E46002526E00120E4E7DD
:101C5000002622E04346002220212046CDF80090B5
:101C600000F0A2FB08B10320D7E726B1A068B84274
:101C70001BD038B108E020684068C0F3080025F8A0
:101C8000020B07E0206980B12068406800F07F0007
:101C900006F8010BE08D401EE085E08D0028D9D1CB
:101CA000202084F842000020B7E720684068EFE772
:101CB00090F84230202B01D00220704721B11AB198
:101CC0000023036300F028BB012070477047704772
:101CD0002DE9F843044690F841001F4616460D468C
:101CE000202802D00220BDE8F8837DB176B1002023
:101CF0006064212084F84100FFF76AF8A6848046DA
:101D0000E684A068B0F5805F02D003E00120EAE736
:101D1000206910B12E4600250EE000260CE080213F
:101D2000204600F041FBA0B9AEB116F8010B2168C6
:101D30004860E08C401EE084E08C43464FF0000297
:101D400000970028EBD14FF04001204600F02CFB1B
:101D500030B10320C7E735F8020BC0F30800E6E70F
:101D6000202084F841000020BDE77047FEE7000016
:101D7000094808B5416941F001014161406900220B
:101D800000F00100009011461020FFF78DF8BDE82B
:101D900008401020FFF77AB8001002400D4808B53F
:101DA000816941F020018161816901F02001009188
:101DB000816941F004018161816901F004010091B0
:101DC000816941F008018161806900F0080000909C
:101DD00008BD00000010024010B586B0002417486E
:101DE000009401940294039404944FF0804105946C
:101DF000016041F61F41C0E9011442F21071C0E9CF
:101E000003148461FFF738FB08B1FEF75DFD4FF462
:101E10008050009069460948FFF778FB08B1FEF74B
:101E200053FD049404A905480594FFF7F1FA00282E
:101E300001D0FEF749FD06B010BD0000D812002009
:101E40000C4810B50A4901604FF416414160002169
:101E500081600C22C160C0E904128161C161FFF799
:101E6000EBFD002803D0BDE81040FEF72DBD10BDEE
:101E700000380140201300200C4810B50A490160C9
:101E80004FF4E1314160002181600C22C160C0E962
:101E900004128161C161FFF7CFFD002803D0BDE8C6
:101EA0001040FEF711BD10BD004400406813002033
:101EB0000C4810B50A4901604FF4164141600021F9
:101EC00081600C22C160C0E904128161C161FFF729
:101ED000B3FD002803D0BDE81040FEF7F5BC10BDEF
:101EE00000480040B0130020FEE7FEE7704770474F
:101EF000FEF774BF30B58FB028216846FEF729F988
:101F000014210AA8FEF725F901210804CDE90010E3
:101F10000024029402250491CDE907504FF4E0100B
:101F200009906846FFF7CEF808B172B6FEE70F20B9
:101F3000CDE90A054FF48060CDE90C4002210AA8E2
:101F40000E94FEF7E3FF002801D072B6FEE70FB053
:101F500030BD70470148FFF748BB0000D812002091
:101F6000F0B50268164B174C174D4FF0804798425A
:101F700005D0B84203D0A04201D0A84203D122F03C
:101F800070064A683243984205D0B84203D0A04256
:101F900001D0A84203D122F44074CA6822434C699C
:101FA00022F08002224302608A68C2620A6882626A
:101FB000984201D10969016301214161F0BD00002E
:101FC000002C0140000400400008004010B5846867
:101FD00042EA032224F47F440A432243826010BD74
:101FE000826822F070020A4342F007018160704764
:101FF00010B5036A046A24F001040462846924F0C1
:10200000F00444EA021423F00A020A4384610262E3
:1020100010BD10B5036A046A24F0100404628469D8
:1020200023F0A00324F4704444EA023243EA01118D
:102030008261016210BD10B5406A0021C185C18472
:10204000FFF7C3FB10BD70B5446A2068406994F87F
:102050004110C0F3C0100025212904D118B1E58436
:10206000204600F08EF82068406994F84210C0F3D2
:102070008010222904D118B1E585204600F05AF8D5
:10208000606C40F0100060642046FFF79EFB70BD5E
:1020900010B50146406A096809684FF000028906D8
:1020A0002ED4C28501680C3151E8003F23F48073BF
:1020B00041E80034002CF5D10168143151E8003FAB
:1020C00023F0010341E80034002CF5D101681431FC
:1020D00051E8003F23F0400341E80034002CF5D1E3
:1020E000202180F84210016B012909D101680C31CF
:1020F00051E8003F23F0100341E80034002CF5D1F3
:102100004263016B012902D0FFF7E0FD10BD818D14
:10211000FFF722FB10BD10B5406A01214163016B3E
:10212000012902D0FFF7D3FD10BD818D4908FFF7CB
:1021300013FB10BD01680C3151E8002F22F490729E
:1021400041E80023002BF5D10168143151E8002F3C
:1021500022F0010241E80023002BF5D1016B012997
:1021600009D101680C3151E8002F22F0100241E83A
:102170000023002BF5D1202180F8421000210163BB
:10218000704701680C3151E8002F22F0C00241E88D
:102190000023002BF5D1202180F84110704708B5AD
:1021A00090F84210222901D0022008BD82684FF425
:1021B00080539A4201D1016921B1816A9A421BD0B0
:1021C0004AB10AE00268816A5268C2F308020A80D2
:1021D000816A891C08E0026972B10268526802F0E3
:1021E0007F020A70816A491C8162C18D491E0904FF
:1021F000090CC18503D01BE002685268F1E7016851
:10220000CA6822F02002CA600168CA6822F480729B
:10221000CA6001684A6922F001024A61202180F8FF
:10222000421000214163026B012A03D0FFF74EFDEB
:10223000002008BD016301680C3151E8002F22F035
:10224000100241E80023002BF5D101680A68D2068C
:1022500002D50A6849680091818DFFF77DFAE7E7AA
:1022600070B5044600680169E26821F440511143E9
:1022700001612169A0680843616908432168CA684F
:1022800041F20C639A430243CA6020684169A26923
:1022900021F44071114341611E492068884202D1F6
:1022A000FEF7DAFE01E0FEF7C7FE00EBC00101EB2E
:1022B0000012606864218000B2FBF0F3B3FBF1F31D
:1022C0006FF018067343B2FBF0F5B2FBF0F605EBC6
:1022D0008305322303EB0515B5FBF1F5B6FBF1F6EB
:1022E00005F0F00505EB0615B2FBF0F6B2FBF0F0D9
:1022F000B0FBF1F06FF01802504306EB800003EBE7
:102300000010B0FBF1F0216800F00F002844886055
:1023100070BD00000038014038B5816204468285F6
:10232000002013466064222284F84220E56B1B4A99
:10233000AA62E56B1A4AEA62E56B1A4A2A63E26B03
:1023400050630A462168E06B091DFEF707FC206810
:10235000016840680090206948B120680C3050E85E
:10236000001F41F4807140E80012002AF5D1206876
:10237000143050E8001F41F0010140E80012002A2B
:10238000F5D12068143050E8001F41F0400140E8CA
:102390000012002AF5D1002038BD0000912000086D
:1023A00017210008472000082DE9F04198461746FC
:1023B0000E460446069D27E0681C25D02DB1FEF789
:1023C00007FDA0EB0800A8421ED920680C3050E899
:1023D000001F21F4D07140E80012002AF5D12068D6
:1023E000143050E8001F21F0010140E80012002ADB
:1023F000F5D1202084F8410084F84200002084F8C0
:1024000040000320BDE8F0812068006836EA000043
:1024100004D00020B842CFD00020F3E70120F9E734
:102420000148FFF7D3B900002013002038B5124847
:10243000FFF7CCF9104C20680068C043C0061AD4DE
:102440002046FFF78AF90D48006840684FF47A7318
:10245000C0F5806082B20A480A4902800A48FFF744
:1024600037FC4FF4806207492046FFF721FC2068C3
:1024700001684068009038BD68130020F813002000
:1024800014000020EC180020201300200148FFF762
:102490009DB90000B0130020FEE700000FB4054B0B
:1024A00010B503A9044A029800F0FEF810BC5DF8CC
:1024B00014FB0000E12D0008000000200FB4084BC1
:1024C00010B504A902AA039800F0EEF8044602A988
:1024D000002000F080FC204610BC5DF814FB0000DA
:1024E000D72D00080907090E002804DB00F1E020C1
:1024F00080F80014704700F00F0000F1E02080F831
:10250000141D704702E008C8121F08C1002AFAD142
:1025100070477047002001E001C1121F002AFBD163
:10252000704700002DE9FF5F82B00021DDE9043033
:10253000020DDDF840B0034318D044F61050A2F26B
:10254000FF3242431514119801281FD0A5EB0B0050
:10255000401C5FEA000A4FF000064E4FDFF838914A
:10256000B046504615D5CAF1000413E01198012475
:102570004AA3012801D16FEA0B010298119AC0E920
:102580000031C0E9024206B0BDE8F09FCBF1000087
:10259000DFE704460021404A491842EB0450CDE9E8
:1025A000001012E0E00707D032463B46404649465D
:1025B000FDF7B1FE8046894632463B461046194635
:1025C000FDF7A9FE06460F466410002CEAD1DDE9AE
:1025D0000401DDE90023BAF1000F06DAFDF79BFEE6
:1025E00042464B46FDF797FE05E0FDF7E4FF424605
:1025F0004B46FDF7E0FF04460E460022284BFDF750
:10260000FDFE03D84FF0FF30014607E00022254BC6
:1026100020463146FDF7D8FDFEF73CF8102409E0CE
:10262000002C0ADB0A220023FDF716FF039B303241
:102630001A55641E50EA0102F2D1641C039AC4F1D7
:1026400011031444119A012A03D0012208430DD129
:102650000AE0084304D000204FF0110B119072E7FC
:10266000A3EB0B056D1E0DE05B4504DD4FF0000292
:1026700005F1010504E003DA4FF00002A5F10105C0
:10268000002AECD002981199C0E90231C0E9004556
:1026900079E70000000014400000F03F3000000027
:1026A0000000F0430000E03F2DE9FF4F95B09B464E
:1026B0008946064600250FE2252877D100242746C3
:1026C000F84A0121059400E0044316F8013F203B3D
:1026D00001FA03F01042F7D130782A2811D06FF0B8
:1026E0002F033078A0F13002092A16D8059A44F059
:1026F000020402EB820203EB42021044761C0590B6
:10270000EFE759F8042B0592002A03DA504244F40B
:102710000054059044F00204761C30782E2816D11F
:1027200016F8010F44F004042A280DD06FF02F0290
:102730003078A0F13003092B09D807EB870302EBAF
:102740004303C718761CF3E759F8047B761C3078EE
:102750006C280FD006DC4C2817D068280DD06A28CA
:1027600014D104E0742810D07A280FD10DE044F47D
:1027700000140AE044F4801401E044F44014727838
:10278000824202D104F58014761C761C30786628CB
:102790000BD013DC582877D009DC002875D04528E9
:1027A000F6D04628F4D047281AD19DE118E06328D6
:1027B00035D0642879D0652812D195E1702873D07E
:1027C00008DC6728F1D069286FD06E280DD06F28FB
:1027D00006D1B5E073282CD0752875D0782874D030
:1027E0005A46179990476D1C75E1C4F302500228B0
:1027F00009D003280DD0D9F8001004280DD00D60A1
:1028000009F1040967E1D9F80010EA17C1E900529B
:10281000F6E7D9F800100D80F2E70D70F0E719F82F
:10282000041B8DF8001000208DF80100EA460120FD
:1028300003E059F804AB4FF0FF3061074FF000019F
:1028400002D40DE008F101018846B9420FDA804553
:10285000F8DB1AF808100029F4D108E008F10101AA
:1028600088468142FADB1AF808100029F6D105984B
:102870005B46A0EB080721463846179A00F094FA09
:10288000284400EB080507E04DE029E10DE01AF8C7
:10289000010B5A4617999047B8F10108F7D25B46E9
:1028A00021463846179A13E142E00A220092C4F307
:1028B00002524FF0000A022A08D059F804CB032A2A
:1028C0004FEAEC710AD00DE029E02AE009F1070196
:1028D00021F00702F2E802C1914609E00FFA8CFCF0
:1028E0004FEAEC71042A03D14FFA8CFC4FEAEC71E9
:1028F000002907DA0A460021DCF1000C61EB020135
:102900002D2202E0220504D52B228DF8042001227D
:1029100003E0E20701D02022F7E7904659E00A21C0
:1029200002E010220DE010214FF0000A00910BE0B0
:1029300010224FF0000A44F004040827009203E03C
:1029400008224FF0000A0092C4F30252022A05D076
:1029500059F804CB0021032A08D009E009F1070146
:1029600021F00702F2E802C1914605E01FFA8CFC53
:10297000042A01D10CF0FF0C4FF00008220728D5E3
:10298000702806D0009B83F0100353EA0A0305D099
:102990000EE040228DF80420012208E05CEA0102EA
:1029A00006D030228DF804208DF8050002229046D2
:1029B000009B83F0080353EA0A030AD15CEA010290
:1029C00001D1620705D530228DF804204FF00108AF
:1029D0007F1E582804D034A003900EA802900DE06A
:1029E00036A0F9E753466046009AFDF735FD844668
:1029F0000398825C0298401E029002705CEA01001B
:102A0000F0D1029806A9081A00F1200A600702D541
:102A100024F4803400E00127574502DDA7EB0A00CB
:102A200000E0002000EB0A01009005984144401AA4
:102A30000590E00306D45B462146179A059800F0FE
:102A4000B3F90544002706E001A85A46C05D17996E
:102A500090476D1C7F1C4745F6DBE0030CD55B46B9
:102A60002146179A059800F09FF9054404E03020AC
:102A70005A46179990476D1C0099481E00900029EE
:102A8000F5DC08E0029802995A460078491C029148
:102A9000179990476D1CBAF10001AAF1010AF1DC07
:102AA00065E1000009280100303132333435363712
:102AB000383961626364656600000000303132338A
:102AC000343536373839414243444546000000002A
:102AD00000F058F90544761C307800287FF4ECADFE
:102AE00019B02846BDE8F08F620700D4062709F127
:102AF000070222F0070CFCE80223E14603F000483D
:102B00005FEA080C02D00FF2702C0DE05FEA045C63
:102B100002D50FF2682C07E05FEAC47C02D00FF206
:102B2000602C01E0AFF2700C4FF0FF3823F000434F
:102B3000CDF850C065280CD006DC452809D04628C1
:102B40001DD047283DD13DE0662818D067287ED1AA
:102B500038E00021112F01DB112000E0781CCDE9C5
:102B6000000106A90EA8FFF7DDFCDDE90F010E9AB2
:102B700003910021009207F1010A04914DE04FF00A
:102B800000400097CDE9011006A90EA8FFF7CAFC86
:102B9000DDE90F0203920E9B11990022DDF80CA0D3
:102BA0000093049211B9791C00EB010AB7EB0A00FB
:102BB00004D4C0F1FF3007F1010A0490AAEB07002A
:102BC000019044E0012F00DA01270021112F01DDDF
:102BD000112000E03846CDE9000106A90EA8FFF754
:102BE000A1FCDDE90F010E9A0391002104910092EE
:102BF000BA4621070CD40399514500DA8A46BAF146
:102C0000010F05DD009AAAF10101515C302908D0BD
:102C1000B84202DA10F1040F06DA0121CDE9011001
:102C200015E0AAF10101E9E7002805DC0499014457
:102C30000491AAEB000102E0411C514500DD8A46E7
:102C40000499401A401C01904FF000400290200768
:102C500004D40198504501DBCDF8048000208DF8A4
:102C60004F0002980DF14F07B0F1004F25D02B20F7
:102C70000E9002984FF0020800280CDA40420290B1
:102C80002D200E9007E00A210298FDF7CFFB30318E
:102C9000029007F8011DB8F10001A8F10108F2DC6B
:102CA00002980028EFD1791E0E980870307800F055
:102CB000200040F0450007F8020D12A8C01B00F1EB
:102CC00007081498007800B1012000EB0A01019870
:102CD00001EBE07105984144401A401E0590E00365
:102CE00006D45B462146179A059800F05DF8054426
:102CF0001498007818B15A46179990476D1CE00354
:102D000024D55B462146179A059800F04DF80544F6
:102D10001CE00498002807DBDDE90301884203DD9D
:102D20000098405C179901E0179930205A46904767
:102D3000049805F10105401C04900198401E019083
:102D400004D12E205A46179990476D1CBAF1000104
:102D5000AAF1010ADDDC05E017F8010B5A461799C4
:102D600090476D1CB8F10001A8F10108F4DC5B4646
:102D70002146179A0598ABE62D0000002B000000B5
:102D8000200000002DE9F041044600251E461746AC
:102D9000880404D405E039462020B0476D1C641E29
:102DA000F9D52846BDE8F0812DE9F041044600251B
:102DB0001E469046C80301D5302700E0202788042E
:102DC00004D505E041463846B0476D1C641EF9D570
:102DD0002846BDE8F0810A68531C0B6010707047EC
:102DE00004490A685206FCD5024AC1B2121D11609C
:102DF00070470000003801408AB0FDF7F7FFFFF789
:102E000079F8FEF7CBFFFEF7B3FFFFF735F8FEF7D3
:102E1000E3FFFFF715F8FFF74BF84FF4966A5446B7
:102E200051466048FDF795F9FDF78AFC64230722B7
:102E30005DA15F48FEF74CFF6423224659495C4878
:102E4000FEF7E0FE21465748FDF783F9642303228D
:102E500058A15748FEF73CFF642322465149544885
:102E6000FEF7D0FE544CEB464FF000095FF0000631
:102E700006EB460004EB0015686A01281FD1E86ADA
:102E8000401CE862A96A401A142818DD5F46212117
:102E9000381DFDF75EF949480068009000203A1897
:102EA000295C401CD1702228F9DB25216846FDF7FA
:102EB000D5FCC5F82490C5F82890C5F82C90761C50
:102EC000642ED5DB00274FF0240851E0354A00205E
:102ED0006B4607EBC70100BF00EB810515446D7819
:102EE0001D54401C2128F7DB8DF821905FF0000570
:102EF00005EB450004EB0016706A012804D1314649
:102F00006846FDF74AF970B16D1C642DF0DB9DF841
:102F100000209DF82010002000EB400304EB031379
:102F20005B6A4BB120E005EB450004EB0010806AC2
:102F3000401CB062F0621AE0552A15D1302913D333
:102F4000392911D800EB400004EB00100546694612
:102F5000FDF731F90120C5E9090922216846C5F8C4
:102F60002C90FDF77BFC02E0401C6428D4DB7F1C26
:102F70000C48FDF70BF9B0FBF8F0B842A6D855465F
:102F800051460848FDF7E5F86423032209A10848E3
:102F9000FEF79EFE64232A4602490548FEF732FEEC
:102FA00064E700003C1400204E312C30360D0A003E
:102FB000B0130020550D0A0018000020C02F000893
:102FC0004F555400010202030405060708090A0BC5
:102FD0000C0D0E0F10100000000000000000010298
:102FE00003040607080900000000010203040000B2
:102FF0001030000800000020180000000425000820
:103000002830000818000020D820000014250008EF
:10301000000000000100000010000000000000009F
:083020000024F4000000000090
:04000005080000ED02
:00000001FF
